S01700004763634170706C69636174696F6E312E737265635B
S11300000C942A000C94FB000C943C000C943C00CF
S11300100C943C000C943C000C943C000C943C006C
S11300200C943C000C943C000C943C000C943C005C
S11300300C943C000C943C000C943C000C943C004C
S11300400C943C000C943C000C943C000C943C003C
S11300500C943C0011241FBECFE5D8E0DEBFCDBF19
S113006020E0A0E6B0E001C01D92A436B207E1F79B
S11300700E943B020C94C7030C94000063E081E4EB
S11300800E944401833079F561E081E40E944401D7
S1130090833059F562E081E40E944401833039F5EC
S11300A063E082E40E944401833019F561E082E454
S11300B00E9444018330F9F462E082E40E94440126
S11300C08330D9F462E084E40E940A018330B9F4F5
S11300D00E949E0381E080936200809361001092ED
S11300E0600080E0089581E0089581E0089581E052
S11300F0089581E0089581E0089581E0089581E004
S1130100089580916100811105C0809160008F5F26
S11301108093600080916200813021F0C0F18230D0
S1130120C9F04CC082E08093630061E081E40E94E6
S11301307E0163E082E40E947E018BE49CE40E94E1
S1130140AC0361E081E40E94F20163E082E40E9476
S1130150F20134C01092630062E081E40E947E01E7
S113016088EC90E007C041E650E062E082E40E943F
S11301702802CE01EC012197892BA9F762E081E4E2
S11301800E94F20162E082E40E94B80117C081E09B
S11301908093630063E081E40E947E0161E082E475
S11301A00E947E018BE49CE40E94AC0363E081E442
S11301B00E94F20161E082E40E94F20180916100F8
S11301C081110DC080916000833049F481E08093F7
S11301D06100109260000E949C030E949A03809127
S11301E06300809362008DCF0E943E00811102C0A3
S11301F00E94810008951F920F920FB60F9211244E
S11302001092610080916300809362000E949503C4
S11302100E948100962F823491F018F4813431F0D9
S113022029C08334A9F08434E1F024C0683020F577
S113023040E0682F892F0E94400283E008956830CF
S1130240E8F440E0682F892F0E94400283E008957B
S11302506830B0F440E0682F892F0E94400283E0A8
S11302600895683078F440E0682F892F0E94400296
S113027083E0089581E0089582E0089582E008957E
S113028082E0089582E00895962F823491F018F464
S1130290813431F029C08334A9F08434E1F024C0DE
S11302A0683020F541E0682F892F0E94400283E0E6
S11302B008956830E8F441E0682F892F0E944002D5
S11302C083E008956830B0F441E0682F892F0E94DC
S11302D0400283E00895683078F441E0682F892F64
S11302E00E94400283E0089581E0089582E0089529
S11302F082E0089582E0089582E00895962F823482
S113030091F018F4813431F029C08334A9F0843495
S1130310E1F024C0683020F541E0682F892F0E9465
S1130320CB0280E008956830E8F441E0682F892F1B
S11303300E94CB0280E008956830B0F441E0682F59
S1130340892F0E94CB0280E00895683078F441E060
S1130350682F892F0E94CB0280E0089581E00895E0
S113036082E0089582E0089582E0089582E008958D
S1130370962F823491F018F4813431F029C08334FB
S1130380A9F08434E1F024C0683020F540E0682FFF
S1130390892F0E94CB0280E008956830E8F440E0A1
S11303A0682F892F0E94CB0280E008956830B0F452
S11303B040E0682F892F0E94CB0280E008956830C6
S11303C078F440E0682F892F0E94CB0280E00895E2
S11303D081E0089582E0089582E0089582E008951E
S11303E082E00895962F823489F018F4813431F034
S11303F025C0833499F08434C9F020C0683000F5F6
S1130400682F892F0E94560380E008956830D0F445
S1130410682F892F0E94560380E008956830A0F465
S1130420682F892F0E94560380E00895683070F485
S1130430682F892F0E94560380E0089581E0089573
S113044082E0089582E0089582E0089582E00895AC
S11304500F931F93CF938A010E94F201C82F811139
S113046004C0C8010E94AC0301C0C4E08C2FCF912A
S11304701F910F9108950E94F40080E090E0089588
S1130480623459F118F4613441F00895633409F485
S113049044C0643409F460C0089541110EC04AB3E5
S11304A021E030E0B90102C0660F771F8A95E2F7B8
S11304B0CB01809584238ABB0895413009F06AC03A
S11304C04AB321E030E0B90102C0660F771F8A9574
S11304D0E2F7CB01842B8ABB089541110EC047B3C8
S11304E021E030E0B90102C0660F771F8A95E2F778
S11304F0CB018095842387BB0895413009F04AC01D
S113050047B321E030E0B90102C0660F771F8A9536
S1130510E2F7CB01842B87BB089541110EC044B38D
S113052021E030E0B90102C0660F771F8A95E2F737
S1130530CB018095842384BB0895413059F544B39D
S113054021E030E0B90102C0660F771F8A95E2F717
S1130550CB01842B84BB089541110EC041B321E02B
S113056030E0B90102C0660F771F8A95E2F7CB012C
S11305708095842381BB0895413061F441B321E027
S113058030E0B90102C0660F771F8A95E2F7CB010C
S1130590842B81BB0895623459F118F4613441F01D
S11305A00895633409F444C0643409F460C00895C0
S11305B041110EC04BB321E030E0B90102C0660F17
S11305C0771F8A95E2F7CB01809584238BBB08952E
S11305D0413009F06AC04BB321E030E0B90102C0F8
S11305E0660F771F8A95E2F7CB01842B8BBB0895A6
S11305F041110EC048B321E030E0B90102C0660FDA
S1130600771F8A95E2F7CB018095842388BB0895F0
S1130610413009F04AC048B321E030E0B90102C0DA
S1130620660F771F8A95E2F7CB01842B88BB089568
S113063041110EC045B321E030E0B90102C0660F9C
S1130640771F8A95E2F7CB018095842385BB0895B3
S1130650413059F545B321E030E0B90102C0660FDD
S1130660771F8A95E2F7CB01842B85BB089541114E
S11306700EC042B321E030E0B90102C0660F771F1B
S11306808A95E2F7CB018095842382BB089541309B
S113069061F442B321E030E0B90102C0660F771F74
S11306A08A95E2F7CB01842B82BB08956234B1F0C2
S11306B018F4613431F008956334E9F0643441F19D
S11306C008954BB321E030E0B90102C0660F771FF3
S11306D08A95E2F7CB0184278BBB089548B321E0C8
S11306E030E0B90102C0660F771F8A95E2F7CB01AB
S11306F0842788BB089545B321E030E0B90102C0E6
S1130700660F771F8A95E2F7CB01842785BB08958E
S113071042B321E030E0B90102C0660F771F8A9529
S1130720E2F7CB01842782BB08951BBA18BA15BA25
S113073012BA089578940895F89408950E949A033B
S113074085B7836085BF8BB780648BBF089513BE64
S113075012BE089513BE0895CF93DF93EC010E9457
S1130760A70383B7816083BF20E030E008C008B6E8
S113077000FEFDCF88B7816088BF2F5F3F4F2C17E5
S11307803D07A8F30E94AA03DF91CF910895F8943E
S1050790FFCF95
S9030000FC
